:020000040800F2
:10000000C06401206103000899510008154D0008E3
:100010007951000891290008E171000800000000F2
:10002000000000000000000000000000195E000851
:10003000794A00080000000015030008915F0008DD
:100040007B0300087B0300087B0300087B03000898
:100050007B0300087B0300087B0300087B03000888
:100060007B0300087B0300087B0300087B03000878
:10007000754600087B0300087B0300087B0300082B
:100080007B0300087B0300087B030008753300082E
:10009000592A00087B0300087B0300087B03000843
:1000A0007B030008156300087B0300085D600008FF
:1000B0007B030008C16300087B0300087B03000882
:1000C0007B0300087B0300087B0300087B03000818
:1000D0007B030008596900088D690008356A00082B
:1000E0007B0300087B0300087B030008A964000869
:1000F0007B0300087B0300087B0300087B030008E8
:100100007B0300087B0300087B0300087B030008D7
:10011000A9670008E96700087B0300087B03000863
:100120007B0300087B030008B94600087B03000836
:100130007B0300087B0300087B0300089D3900084F
:10014000413400087B0300087B0300087B030008A0
:100150007B0300087B0300087B030008716A00082A
:100160007B0300087B0300087B0300087B03000877
:100170007B0300087B0300087B0300087B03000867
:100180007B0300089D4B000800F002F800F0B2F875
:100190000AA090E8000C82448344AAF10107DA45E2
:1001A00001D100F0A7F8AFF2090EBAE80F0013F082
:1001B000010F18BFFB1A43F00103184724CF0000BA
:1001C00044CF00000A444FF0000C10F8013B13F03C
:1001D000070408BF10F8014B1D1108BF10F8015BA0
:1001E000641E05D010F8016B641E01F8016BF9D193
:1001F00013F0080F1EBF10F8014BAD1C0C1B09D1EA
:100200006D1E58BF01F801CBFAD505E014F8016B5B
:1002100001F8016B6D1EF9D59142D6D370470000ED
:100220000023002400250026103A28BF78C1FBD8FF
:10023000520728BF30C148BF0B6070476E2900F0DD
:10024000B783702900F0718166290CF0EA80652976
:100250000CF0E78067290CF0E48061290CF0E38062
:1002600003681B0A28BF41F08001692900F0E28081
:10027000642900F0DF80752900F0DC806F2900F030
:10028000BE86782900F03D81E92900F05986E429ED
:1002900000F05686F52900F05386EF2900F0BB8662
:1002A000F82900F03C810368DB0928BF41F0800198
:1002B000632900F0C885732900F0CD85E32901F09A
:1002C000CB80F32901F0D080002070471FB50CF0DF
:1002D0009EF800F0AFFE0400002000210BF07EFC31
:1002E000401C6060002000210BF062FCE0601FBD3C
:1002F00010B510BD01F052F91146FFF7E7FF08F005
:1003000069FE01F079F903B4FFF7F2FF03BC06F0D0
:10031000BEFF000072B6EFF3098050B11EF0100F5F
:1003200008BF20ED108A203880E8F00F0A490968DC
:100330000860094809490A680260106890E8F00FEF
:1003400020301EF0100F08BFB0EC108A80F309882F
:100350004EF0040E62B67047C40F0020C80F002094
:100360000948804709480047FEE7FEE7FEE7FEE749
:10037000FEE7FEE7FEE7FEE7FEE7FEE70448054985
:10038000054A064B70470000A15F0008890100087C
:10039000C05E0120C0640120C0600120C060012057
:1003A000704700001CB50C46064B7B446946009024
:1003B000204600F026FD04460020694600F034FD8A
:1003C00020461CBD7B0A00000FB4044910B503AAE7
:1003D000029800F045FD10BC5DF814FB940F00205E
:1003E00070B50C460546012A05D02878800600D550
:1003F000EA69002302E0012305E05B1C934202D27C
:10040000E05C0028F9D1A869E618C01AA861286A3A
:1004100018442862284600F039FA04E0D5E90121A1
:1004200014F8010B9047B442F8D3284600F044FA80
:1004300070BD00002DE9F0410646002410687529C2
:10044000314616A510D000F048FA002802DA4042E2
:1004500013A507E031688A0701D512A502E0490714
:1004600004D511A5012401E000F040FA00210A2280
:1004700006F1240709E0B0FBF2FCB0FBF2F302FB4B
:100480001C00303078541846491C0028F3D123460C
:100490002A463046BDE8F04100F031BA00000000C5
:1004A0002D0000002B00000020000000F0B40D46DD
:1004B0000188090502D5214C7C4402E01F4C7C4494
:1004C0000E34002100F1240608E002F00F071209A3
:1004D000E75D42EA03721B097754491C52EA03079D
:1004E000F3D102780023120704D5702D06D009B18C
:1004F000022311342246F0BC00F001BA012310346B
:10050000F8E770B504460D462146106800F0EEF994
:10051000024629462046BDE870400023C6E7D21DAA
:1005200022F00703D3E90023C0E70368126843F011
:10053000200303600823C3610023B7E7ACCA0000AF
:100540002DE9F05F894604464FF0000ADFF874B1E8
:10055000FB44C0F820A02046E1688847002874D0FA
:10056000252806D0D4E901219047206A401C20624A
:10057000F1E700265F462046E168884720280546C7
:1005800007DB312D05D2781910F8200C08B106438D
:10059000F1E7B00701D526F00406C4F81CA0002737
:1005A000C4F818A02A2D09D0284606F069FE38B3F1
:1005B00004EB8708303DC8F8185019E059F8041BBF
:1005C000204604EB87029161E1688847012F0546C8
:1005D00018D1E069002820DA26F020061DE0D8F8BE
:1005E000180000EB800005EB40003038C8F8180018
:1005F0002046E1688847054606F042FE0028EED115
:10060000012F0AD02E2D08D12046E16888477F1C93
:100610000546022F46F02006C4DBA069002803DA55
:10062000404246F00106A061F00701D026F0100616
:100630006C2D0BD0682D09D04C2D39D06A2D35D0BA
:10064000742D35D07A2D33D016E038E0E1682F468E
:1006500020468847B842054609D16C2F26D04FF472
:100660008060E168064320468847054604E06C2F19
:100670001AD04FF4807006430DB3A5F1410019283C
:1006800002D8203546F400664A46294620462660B0
:100690004E46FFF7D3FD80B101280BD0F61D26F0A2
:1006A000070000F1080956E74020E4E78020D8E77A
:1006B0000020D6E706F104094DE7284652E7206AF4
:1006C000BDE8F09F3CCA0000032A40F2308010F0E1
:1006D000030C00F0158011F8013BBCF1020F6244DD
:1006E00098BF11F801CB00F8013B38BF11F8013B6E
:1006F000A2F1040298BF00F801CB38BF00F8013B1B
:1007000011F0030300F02580083AC0F0088051F88A
:10071000043B083A51F804CBA0E80810F5E7121D95
:100720005CBF51F8043B40F8043BAFF30080D207B4
:1007300024BF11F8013B11F801CB48BF11F8012B80
:1007400024BF00F8013B00F801CB48BF00F8012BA3
:10075000704710B5203AC0F00B80B1E81850203A2D
:10076000A0E81850B1E81850A0E81850BFF4F5AF51
:100770005FEA027C24BFB1E81850A0E8185044BFDB
:1007800018C918C0BDE810405FEA827C24BF51F848
:10079000043B40F8043B08BF7047D20728BF31F83C
:1007A000023B48BF11F8012B28BF20F8023B48BF8D
:1007B00000F8012B70474FF0000200B51346944635
:1007C0009646203922BFA0E80C50A0E80C50B1F1A9
:1007D0002001BFF4F7AF090728BFA0E80C5048BFBD
:1007E0000CC05DF804EB890028BF40F8042B08BF5B
:1007F000704748BF20F8022B11F0804F18BF00F857
:10080000012B70474FF0013C50F8042B51F8043B8A
:100810009A4221D1A2EB0C03934313EACC1317D1D4
:1008200050F8042B51F8043B9A4215D1A2EB0C036B
:10083000934313EACC130BD150F8042B51F8043B2B
:100840009A4209D1A2EB0C03934313EACC13DBD0F9
:100850004FF00000704700BFD01A01BAB1FA81F121
:1008600001F0180122FA01F0CB40C1F12001DBB206
:10087000C0B2C01A2CFA01F3D11A914311EAC31184
:10088000E6D17047704770477047704770B50446AF
:1008900085690068C10601D5302600E02026C00722
:1008A00007D070BDD4E9012130469047206A401C32
:1008B00020626D1EF6D570BD70B50446856900785E
:1008C000C00707D170BDD4E9012120209047206ADC
:1008D000401C20626D1EF6D570BD09684A0501D521
:1008E00040B27047C905FCD500B2704709684A0597
:1008F00001D5C0B27047C905FCD580B270472DE95B
:10090000F0470D4699469246044600F124080168D6
:10091000880604D5E06921F01001216000E0012083
:10092000A84201DD471B00E00027A1697A1902EB0C
:100930000900081AA0612078C00602D42046FFF7FB
:10094000A5FF002608E0D4E901211AF80600904727
:10095000206A401C761C20624E45F4DB2078C006DD
:100960000AD52046FFF792FF06E0D4E901213020A6
:100970009047206A401C2062381EA7F10107F4DC72
:1009800007E0D4E9012118F805009047206A401CCF
:100990002062281EA5F10105F3DC2046FFF78CFF3D
:1009A0002078000602D50220BDE8F0870120FBE791
:1009B00011680268006A530501D508700AE0D30582
:1009C00001D5088006E0130603D5C217C1E900026D
:1009D00000E008600120704770472DE9FF4F0C468A
:1009E0001E464FF0FF378BB0D2E90001DDF8608082
:1009F0000A908A46C1F30A5505B93D4600210846CA
:100A00004FF00000BAF1000F00F4400005DA00EBEF
:100A100080004FF4400101EA50004FEA9059B9F1CB
:100A2000010F00DDB9460A9850EA4A000ED044F69C
:100A30001050A5F2FF3545432F14B8F1000F1ED01A
:100A40007542291E1EDDC9F100021CE0B8F1010F3C
:100A50004FF0000001D0302103E0F24305E02154C3
:100A6000401CB042FBDB30460022002121540B9990
:100A7000C1F80880C1E900200FB0BDE8F08FBD1BB0
:100A80006D1CDEE74A4600DA694206A800F0F0FC79
:100A900006AB93E8070003AB83E8070050460A99CA
:100AA00000F0B3FD8DE80700A0F500501F3800905E
:100AB0000398002D0ADD42F21F014A460844002334
:100AC00003A90390684601F01CF809E0A0F5005066
:100AD0004A461F38002303A90390684601F026F810
:100AE0008DE807000004000C03D04FF0FF304108F0
:100AF00000E01046B8F1000F03D000220092154626
:100B00001EE0751E05D400F099FA303262556D1E54
:100B1000F9D5B3460122084302D000227F1C04E02D
:100B20002078302801D100227F1E002A099784D026
:100B30001DE0112D07DA00F081FA303262556D1C8C
:100B400050EA0102F5D1084302D00098C8B10EE086
:100B50000021681E05E0235C625C63542254401E41
:100B6000491C8142F7DBAB46A81B401E09900020C0
:100B700004F80B000B98099AC0F80880C0E9002B14
:100B80007AE711264FF0000857E72DE9F04F884625
:100B90000446D21D22F0070191B0D1E90001CDE950
:100BA0000A0106F055FB02460B98C00F01D02D201C
:100BB00007E02068810701D52B2002E0202101EA0F
:100BC000C000032A099001D0072A05DB03464146ED
:100BD000204600F0F7FB0BE12078800601D5E069A4
:100BE00000E00620B8F1650F814606D0B8F1660F27
:100BF00018D0B8F1670F70D131E00020B9F1110FB2
:100C0000009001DB112301E009F101030AAA01A907
:100C10000CA8FFF7E2FEDDE90C70002609F10105E2
:100C2000834647E001204B4600904FF000470AAA58
:100C300001A90CA8FFF7D1FEDDE90DB00C995D46C6
:100C4000002610B909F101000D18B9EB050003D415
:100C5000C0F1FF3609F10105A5EB09002BE0B9F160
:100C6000010F01DA4FF001090020B9F1110F0090D6
:100C7000484601DD112300E003460AAA01A90CA899
:100C8000FFF7ABFEDDE90C704D4600268346207869
:100C900000070AD4AB4500DA5D4601A8012D04DD4A
:100CA000411911F8011C302907D04F4502DA17F11C
:100CB000040F04DA012082460FE06D1EEEE7002FDC
:100CC00002DCED1B3E4403E0781CA84200DD7D1CE5
:100CD000B81B00F1010A4FF000472078000703D449
:100CE000AA4501DB4FF0FF3A0021B7F1004F0DF1AB
:100CF00043088DF8431024D002202B23002F01DA63
:100D00007F422D230A21021EA0F1010000DC5FB109
:100D100097FBF1FC97FBF1F201FB1C7C17460CF1F1
:100D2000300C08F801CDEEE7A8F10100037021882E
:100D3000090501D5452100E06521A0F1010800F871
:100D4000011C09980FA9A1EB0807FF1D00B10120A4
:100D5000411901EBEA70A1693844081A401EA061EC
:100D60002078C00602D42046FFF790FD099828B1EC
:100D7000D4E901219047206A401C20622078C006F7
:100D800022D52046FFF782FD1EE0002E04DBB3458E
:100D900002DD01A8805D00E03020D4E90121904708
:100DA000206A401C2062761CAAF101005FEA000A5A
:100DB0000AD100F03FF9C0680168405CD4E9012124
:100DC0009047206A401C2062281EA5F10105DCDC4A
:100DD00007E0D4E9012118F8010B9047206A401C74
:100DE0002062381EA7F10107F3DC2046FFF764FDFF
:100DF000032011B041E6000001694A1C0261087835
:100E0000704700B58FB0CDE901310021059105494A
:100E10007944CDE9031011466846FFF791FB0FB006
:100E200000BD0000E5FFFFFF0A6802F8010B0A6041
:100E3000704710B5436913B1AFF3008001E0FFF7CD
:100E4000CFFA012010BD127800F124010A700022AF
:100E50004A700122EDE711684FF0FF32E9E7000028
:100E6000074B70B50D467B44FFF7CBFF0446284681
:100E700000F070FB10B14FF0FF3070BD204670BD28
:100E80003B7300002DE9FF5F15468A460446DFF8F4
:100E9000AC80F8440027D8E900103E46CDE90010A8
:100EA00010E03AF816106A4602A800F057FB411C01
:100EB00007D02178890603D5E269391891420DD807
:100EC0000744761C2078800602D5E069B84205DD2B
:100ED000AE42E6DB3AF816000028E2D1A069C01B5A
:100EE000A0612046FFF7D2FCD8E90010CDE9001040
:100EF000002017E03AF818106A4602A800F02EFB0E
:100F0000B0F1FF3F81460BD000250DF1080B05E045
:100F1000D4E901211BF8050090476D1C4D45F7D31E
:100F200008F10100B0428046E4DB206A38442062C8
:100F30002046FFF7C1FCBDE8FF9F00000EC1000086
:100F40002DE9F0418046D21D22F007020025D2E9AA
:100F50000002F52915A614D0011E72F1000106DA6F
:100F60000023D0EB030063EB020211A608E0D8F8DF
:100F700000108B0701D50FA602E0490701D50EA688
:100F800001251146002408F1240704E000F056F87A
:100F900030323A55641C50EA0102F7D12B463246F2
:100FA00021464046BDE8F041FFF7A9BC0000000023
:100FB0002D0000002B0000002000000030B40021B4
:100FC00000F1240408E002F00705D208303542EAB7
:100FD0004372DB086554491C52EA0305F3D10468E7
:100FE000002310A2250707D5A40600D421B1C469A7
:100FF00001230DA2641EC46130BCFFF780BC10B594
:10100000044621461068FFF771FC02462046BDE801
:1010100010400023D2E7D21D22F00701D1E90023BE
:10102000CCE70000000000003000000000487047DE
:10103000605E012000487047805E012030B5B0F14D
:101040000A024FEA900E71F100034EEA817EB0EB86
:101050000E0061EB91014FEA101E4EEA017E10EB8B
:101060000E0041EB11114FEA102E4EEA016E10EB0B
:101070000E0041EB11214FEA104E4EEA014E10EBEB
:101080000E0041EB1141401841F100014FEAD00040
:1010900040EA41704FEAD10110EB80054FEA81042C
:1010A00044EA907444EB01046D1944EB0404521BB0
:1010B000A3414FF0000348BF0A3200D530BD401CA9
:1010C00041F1000130BD00002DE9F04F04460D460E
:1010D000D21D22F0070089B0D0E900974846394672
:1010E00006F0B6F80246F80F01D02D2307E020687D
:1010F000810701D52B2302E0202101EAC0038DF8EE
:1011000020300BB1012000E00020032A824601D0EC
:10111000072A04DB2946204600F054F93FE12078F5
:10112000800601D40D2500E0E569C7F30A560D2DB0
:1011300049DA00214FEA175B08464FF00000002F04
:1011400000F4400007DA00EB80004FF4400100EBB0
:10115000D07001EA60008115012901DD4FF0FF31F7
:1011600000224FEA850CBCF1180F06D31346ACF1F0
:1011700018004FF08052C24003E04FF4801323FA6E
:101180000CF30CF10C0CBCF1200F04D3ACF1200CCF
:1011900009FA0CF001E007FA0CF000294FF00048C2
:1011A00001DD18B90FE00ED140450CD319EB02094F
:1011B0005F4121B9404502D19F4329EA0209BBEBB7
:1011C000175F00D0761C2088000502D57B48784444
:1011D00002E07A487844193808AA302302F80A3025
:1011E000037C0AF10101002E0AF1020A53546A46F7
:1011F00002DC4FF0300101E04FF031014FF0010807
:101200008DF8001002D0A6F2FF3603E059EA47013C
:1012100000D06B4E002D02DC2178090704D54FF079
:1012200002082E218DF80110C44600210BE0C7F3FF
:1012300003433F01C35C491C6D1E02F808300529B9
:1012400008F1010801DA002DF1DC00210CE000EBCF
:101250001973491C1B786D1E082902F808304FEAE3
:10126000091908F1010801DA002DF0DC21688B066C
:1012700002D516E0A8F10108E04505DD02EB080300
:1012800013F8013C302BF5D0B8F1000F09DD02EB6B
:10129000080313F8013C2E2B03D1090701D4A8F150
:1012A0000108002D05DD3E2102F808106D1E08F131
:1012B0000108407C002E02F8080008F1010804DA59
:1012C0002D20764202F8080002E02B2002F80800E8
:1012D0000A214FF47A70864208F101080BDB96FB75
:1012E000F0F3303302F8083096FBF0F308F1010810
:1012F00000FB136601E0642E0CDB642096FBF0F328
:10130000303302F8083096FBF0F308F1010800FBD7
:10131000136601E00A2E06DB96FBF1F0303002F88E
:10132000080008F1010896FBF1F001FB1060303075
:1013300002F80800A16908F1010808EB050202EBB8
:101340000A00081AA0612078C00602D42046FFF7E0
:101350009DFA216A08AE01EB0A00206204E0D4E99C
:10136000012116F8010B9047BAF1010AF7D2207853
:10137000C00602D52046FFF789FA6E4609E016F846
:10138000010B3E280FD0D4E901219047206A401C70
:101390002062B8F10108F2D22046FFF78DFA09B0B9
:1013A0000320BDE8F08F206A2844206203E0D4E9DE
:1013B0000121302090476D1EEBD3F8E7EDBD000012
:1013C00002FCFFFF2DE9F0411F4604460326016899
:1013D000072A01F4006004DB08B116A505E016A594
:1013E00003E008B115A500E015A521F0100020606C
:1013F000A069C01EA0610FB1401EA0612046FFF78A
:1014000045FA4FB1D4E9012138469047206A401C83
:101410002062C01C206206E0206AFAE7D4E90121BC
:1014200015F8010B9047761EF8D22046FFF744FAD4
:10143000BDE8F0814E414E006E616E00494E46009F
:10144000696E660010B5436913B1AFF3008001E027
:10145000FFF718FD012010BD128800F124018284DD
:101460000022C2840122EDE711684FF0FF32E9E764
:101470002DE9F047814616468AB0354878440DC8B4
:101480008DE80D0032487844801C03AC0DC884E818
:101490000D0041F69B300844372190FBF1F290FBA0
:1014A000F1F5A5F1800501FB12041B3C02D5644255
:1014B000012000E00020DFF898A080460027FA44D1
:1014C000AAF1BE0A0EE0E0070AD03246684607EBF2
:1014D000470101230AEB810100F028FB8DE807009A
:1014E00064107F1C002CEED1194F7F44AE3F19E0F1
:1014F000E80715D007EB04100DF1180A90E80E006C
:101500008AE80E00C068F04201D19819089032466E
:10151000012306A903A800F009FB03AB83E8070039
:101520006D10641C002DE3D14FF001033246694673
:10153000B8F1000F03A802D000F0E3FA01E000F0D8
:10154000F5FAC9E90001C9F808200AB0BDE8F0873A
:10155000D0BB0000007B00F08000704770B51646DD
:101560000C46054600F040F8036893F80101012895
:1015700006D0FF2C0FD8185D68B101202C7070BD0B
:10158000D3F807013246214603F2071303442846E5
:10159000BDE8704018474FF0FF3070BD7546FFF74B
:1015A00045FDAE4605006946534620F007008546D6
:1015B00018B020B5FEF7E2FEBDE820404FF000066F
:1015C0004FF000074FF000084FF0000B21F007012B
:1015D000AC46ACE8C009ACE8C009ACE8C009ACE86E
:1015E000C0098D467047000010B5FFF723FD001DB0
:1015F00010BD00BFE9A5000010B50446AFF30080A0
:101600002046BDE81040FEF77EBE5FEA400C08BFF2
:1016100091F0000F4FEA8C234FEAC12243EA515167
:101620004FEA1C5018BF00F5F0404FEA300018BFD9
:1016300041F000415FEA6C5C00F02980BCF1FF3FA3
:1016400008BF40F080407047130C06BF12044FF0F3
:10165000100C4FF0000C130E04BF12020CF1080C1A
:10166000130F04BF12010CF1040C930F04BF92007E
:101670000CF1020CD30F04BF52000CF1010C114607
:101680004FF00002A0F11F00A0EB0C00704711F01A
:10169000004F08BF704731F000413FF4D5AF0B0C4D
:1016A00006BF09044FF0100C4FF0000C0B0E04BFE6
:1016B00009020CF1080C0B0F04BF09010CF1040C1A
:1016C0008B0F04BF89000CF1020CCB0F04BF490043
:1016D0000CF1010CCCF12003A0EB0C0022FA03F377
:1016E00002FA0CF241EA030100F10100704720F018
:1016F0007F4C80EA030023F07F47ACEB070303F540
:101700007C5300F0004003F1FF032DE980494FEACC
:10171000154B09B44FEA144325EA0B4E24EA03485B
:101720000FF2042606EB132749083E785FEA3202DF
:1017300003FB0667C7F5000707FB06F64FEA5437B9
:101740004FEAD64606F1020607FB066CCCF1005CB8
:101750004FEA1C472CEA074C07FB06F40CFB06F586
:1017600004EB15464FEA961634BF00204FF00040B8
:101770004FEAD13706FB07FC4FEA1C4C0CFB0BF77A
:10178000D21B03FB0CF761EB07010CFB0EF7B0EB70
:10179000074072EB17420CFB08F734BFA2EB07427D
:1017A000B2EB074261EB17414FEA0C444FEA910755
:1017B00006FB07FC4FEA1C4C0CFB0BF7B0EBC740D9
:1017C00072EB573203FB0CF734BFA2EBC742B2EB0C
:1017D000C74261EB57310CFB0EF7B0EBC70072EB61
:1017E00057720CFB08F734BFA2EBC702B2EBC7027B
:1017F00061EB5771039F4FEA816141EA921104EB5B
:10180000CC044FEAD1374FEA826206FB07FC42EA7A
:1018100090124FEA80604FEA1C4C0CFB0BF7D21B76
:1018200003FB0CF761EB07010CFB0EF7B0EB074075
:1018300072EB17420CFB08F734BFA2EB0742B2EB86
:10184000074261EB17414FEA8C554FEA910704EBD1
:101850009C2406FB07FC4FEA1C4C0CFB0BF7B0EB7F
:10186000C74072EB573203FB0CF734BFA2EBC74201
:10187000B2EBC74261EB57310CFB0EF7B0EBC70080
:1018800072EB57720CFB08F734BFA2EBC702B2EB46
:10189000C70261EB577115EB4C254FEA816141EAB4
:1018A00092114FEA82624FEAD13742EA901206FB68
:1018B00007FC44F100044FEA80604FEA1C4C0CFB2B
:1018C0000BF7D21B03FB0CF761EB07010CFB0EF7C8
:1018D000B0EB074072EB17420CFB08F734BFA2EBEA
:1018E0000742B2EB074261EB174115EB1C154FEABB
:1018F000813141EA92414FEA823242EA90424FEA14
:1019000080304FEA0C7644F1000448EA03434EEA83
:101910000B484FF0000EB2EB080C71EB030724BF2D
:10192000624639464EEB0E0E4FF0000B0018524146
:1019300049414BEB0B0BB2EB080C71EB03077BF14E
:10194000000B24BF624639464EEB0E0E4FF0000BE3
:101950000018524149414BEB0B0BB2EB080C71EBF9
:1019600003077BF1000B24BF624639464EEB0E0E97
:1019700051EA020718BF46F0010616EB0E7655F144
:10198000000254F1000103D5BDE88901BDE80088DB
:10199000BDE88901BDE80048B619524141EB01019B
:1019A000A3F10103704780807F7E7D7C7B7A79780C
:1019B000777676757473727171706F6E6E6D6C6C14
:1019C0006B6A6A69686867666665646463636261B6
:1019D0006160605F5F5E5E5D5D5C5C5B5B5A5A5937
:1019E00059585857575656555555545453535252A3
:1019F0005251515050504F4F4F4E4E4D4D4D4C4CFB
:101A00004C4B4B4B4A4A4A49494948484847474743
:101A10004746464645454544444444434343434280
:101A2000424242414141002B9C4630D477002BD0AA
:101A30001CB54FEA370703B44FF010004FF0100108
:101A4000BAF1000F06D0BCF1000FDCBF40F0080077
:101A500040F008014FF000000FBCBDE810400BF152
:101A6000010BBBF1010F08BF5FEA170722BF12F19C
:101A7000010211F101014FF0004143F1000300F0B8
:101A8000004043EA00007047F9D35708D0E746EA20
:101A9000064613F1400F4FEA16461FDD13F1200FE3
:101AA000DFBF16430A46002120335B42BED0C3F19C
:101AB000200746EA064602FA07F74FEA164646EAC4
:101AC0000706C3F1200722FA03F201FA07F721FA09
:101AD00003F14FF0000342EA0702A7E746EA0206D5
:101AE00046EA06464FEA164646EA0106BCBF46EA03
:101AF0000646360C4FF000034FF000024FF0000195
:101B000094E72DE9804C9A46934670B491E83800EA
:101B100007C831EA400C48BF34EA430C03D5FFF74D
:101B2000E6FDFFF780FFF0BCBDE8008C2DE9804C9E
:101B30009A46934670B491E8380007C810F0804F79
:101B400008BF13F0804F03D100F005F8FFF76BFFDB
:101B5000F0BCBDE8008C20F07F4780EA030023F052
:101B60007F4C07EB0C03A3F57C5300F00040A3F17E
:101B7000FE0392F0000F00F0B38095F0000F00F02C
:101B800077802DE901494FEA11404FEA144621EAD6
:101B9000004800FB06FC24EA064708FB06F607FBA4
:101BA00008F800FB07F718EB06484CEB164C4FEA19
:101BB000124B18EB07484FEA15464CEB174022EA48
:101BC0000B4E0BFB06FC25EA06470EFB06F607FB51
:101BD0000EFE0BFB07F71EEB064E4CEB164C4FF0C0
:101BE00000061EEB074E4CEB174B18EB0B0840F1B1
:101BF000000018EB0E0B58EB000840F100008F1AA4
:101C00004FF000013CBFC943661B14BFB5EB040C89
:101C100000213CBFC943F61B4FEA17444EEA8E0E23
:101C200027EA04454FEA1C4704FB07622CEA074CED
:101C300005FB07F70CFB05F604FB0CFC16EB07464F
:101C400042EB174216EB0C4642EB1C421BEB06061E
:101C500058EB0202414146EA9E0601D5BDE80189E2
:101C6000B619524141EB0101A3F10103BDE801891D
:101C70004FEA14454FEA114724EA054621EA074C8A
:101C800005FB07F406FB07F70CFB06F105FB0CFC54
:101C900011EB074144EB17444FEA124711EB0C419B
:101CA00044EB1C4422EA074C05FB07F206FB07F74E
:101CB0000CFB06F605FB0CFC16EB074642EB174245
:101CC00016EB0C4642EB1C456A1854F1000148BF64
:101CD0007047B619524141EB0101A3F1010370476E
:101CE00095F0000F37D04FEA11424FEA144721EA2E
:101CF000024624EA074C02FB07F106FB07F70CFB40
:101D000006F402FB0CFC14EB074441EB17414FEACD
:101D1000154714EB0C4441EB1C4125EA074C02FB30
:101D200007F506FB07F70CFB06F602FB0CFC16EBAF
:101D3000074645EB174516EB0C4645EB1C421219BE
:101D400051F1000148BF7047B619524141EB010102
:101D5000A3F1010370474FEA14454FEA114724EA03
:101D6000054621EA074C05FB07F106FB07F70CFBCC
:101D700006F24FF0000605FB0CFC12EB074241EBAC
:101D8000174112EB0C4251EB1C4148BF70479218AF
:101D900041EB0101A3F101037047000010B5FE48BB
:101DA000807848B10020FC498870FC480178FC48E4
:101DB000007800F0A3FC14E2F748C078E8B30020F4
:101DC000F549C870F748008A04EE900AF8EE644AB4
:101DD000B0EE644AF348C08904EE900AF8EE644A13
:101DE000F0EE643AEF48808904EE900AF8EE644A17
:101DF000B0EE643AEB48408904EE900AF8EE644A8B
:101E0000F0EE642AE748008904EE900AF8EE644A8E
:101E1000B0EE642AE348C08804EE900AF8EE644A03
:101E2000F0EE641ADF48808804EE900AF8EE644A07
:101E3000B0EE641ADB48408800E011E004EE900A3E
:101E4000F8EE644AF0EE640AD648008804EE900A80
:101E5000F8EE644AB0EE640A012000F07DFCC0E1B7
:101E6000CD480079E8B30020CB490871CD48408CBB
:101E700004EE900AF8EE644AB0EE644AC948008C59
:101E800004EE900AF8EE644AF0EE643AC548C08B5E
:101E900004EE900AF8EE644AB0EE643AC148808BD2
:101EA00004EE900AF8EE644AF0EE642ABD48408BD6
:101EB00004EE900AF8EE644AB0EE642AB948008B4A
:101EC00004EE900AF8EE644AF0EE641AB548C08A4F
:101ED00004EE900AF8EE644AB0EE641AB148808AC3
:101EE00000E011E004EE900AF8EE644AF0EE640AB5
:101EF000AC48408A04EE900AF8EE644AB0EE640AF8
:101F0000022000F029FC6CE1A3484079E8B30020EE
:101F1000A1494871A348808E04EE900AF8EE644A05
:101F2000B0EE644A9F48408E04EE900AF8EE644A90
:101F3000F0EE643A9B48008E04EE900AF8EE644A94
:101F4000B0EE643A9748C08D04EE900AF8EE644A09
:101F5000F0EE642A9348808D04EE900AF8EE644A0D
:101F6000B0EE642A8F48408D04EE900AF8EE644A81
:101F7000F0EE641A8B48008D04EE900AF8EE644A85
:101F8000B0EE641A8748C08C00E011E004EE900ABD
:101F9000F8EE644AF0EE640A8248808C04EE900AFF
:101FA000F8EE644AB0EE640A032000F0D5FB18E1B5
:101FB00079488079E8B30020774988717948B0F88A
:101FC000460004EE900AF8EE644AB0EE644A7548A2
:101FD000B0F8440004EE900AF8EE644AF0EE643A79
:101FE0007048B0F8420004EE900AF8EE644AB0EE91
:101FF000643A6C48B0F8400004EE900AF8EE644A87
:10200000F0EE642A6748C08F04EE900AF8EE644A46
:10201000B0EE642A6348808F04EE900AF8EE644ABA
:10202000F0EE641A5F48408F04EE900AF8EE644ABE
:1020300000E015E0B0EE641A5A48008F04EE900AF2
:10204000F8EE644AF0EE640A5648C08E04EE900A38
:10205000F8EE644AB0EE640A042000F07DFBC0E0B4
:102060004D48C079E8B300204B49C8714D48808B7A
:1020700004EE900AF8EE644AB0EE644A4948B0F8BB
:10208000560004EE900AF8EE644AF0EE643A4548D1
:10209000B0F8540004EE900AF8EE644AB0EE643AE8
:1020A0004048B0F8520004EE900AF8EE644AF0EEB0
:1020B000642A3C48B0F8500004EE900AF8EE644AF6
:1020C000B0EE642A3748B0F84E0004EE900AF8EEFD
:1020D000644AF0EE641A3348B0F84C0004EE900AFB
:1020E00000E019E0F8EE644AB0EE641A2D48B0F84A
:1020F0004A0004EE900AF8EE644AF0EE640A2948B9
:10210000B0F8480004EE900AF8EE644AB0EE640AB3
:10211000052000F021FB64E01F48007AD0B30020C6
:102120001D4908721F48B0F86A0004EE900AF8EEE4
:10213000644AB0EE644A1B48B0F8680004EE900AA6
:10214000F8EE644AF0EE643A1648B0F8660004EE21
:10215000900AF8EE644AB0EE643A1248B0F86400AF
:1021600004EE900AF8EE644AF0EE642A0D48B0F8E6
:10217000620004EE900AF8EE644AB0EE642A094860
:10218000B0F8600004EE900AF8EE644AF0EE641ACB
:10219000044809E025E0000008250020DD020020B9
:1021A000DC0200209C240020B0F85E0004EE900ABF
:1021B000F8EE644AB0EE641A0B48B0F85C0004EE26
:1021C000900AF8EE644AF0EE640A0748B0F85A0044
:1021D00004EE900AF8EE644AB0EE640A062000F0BD
:1021E000BBFA00F005FA10BD9C24002030B50A4669
:1021F0000021002304E0C45C0C44E1B25C1CE3B2A7
:10220000541E9C42F7DC841814F8014C8C4200D018
:1022100030BD0478AA2C02D14478AF2C00D0F7E767
:102220008478022C0AD10479012C06D1EC4DEC7093
:102230002C716C71AC71EC712C7200BF8478102C15
:1022400044D10479457945EA0424E64D2C8084790B
:10225000C57945EA0424E34D6C80047A457A45EA61
:102260000424E04DAC80847AC57A45EA0424DD4D2F
:10227000EC80047B457B45EA0424A5B2D94C25813A
:10228000847BC57B45EA0424A5B2D64C6581047CD9
:10229000457C45EA0424D34DAC81847CC57C45EA69
:1022A0000424A5B2CF4CE581047D457D45EA042494
:1022B000A5B2CC4C2582CA4CA4783CB90124C84DA7
:1022C000AC708478C84D2C70C84C21708478112C67
:1022D00046D10479457945EA0424C24D6C8284795B
:1022E000C57945EA0424A5B2BE4CA582047A457A94
:1022F00045EA0424A5B2BB4CE582847AC57A45EA56
:102300000424B84D2C83047B457B45EA0424A5B204
:10231000B44C6583847BC57B45EA0424A5B2B14CEB
:10232000A583047C457C45EA0424AE4DEC83847C83
:10233000C57C45EA0424A5B2AA4C2584047D457DCC
:1023400045EA0424A5B2A74C6584A54CA4783CB901
:102350000124A34DAC708478A34D2C70A34C217044
:102360008478122C46D10479457945EA04249D4DA0
:10237000AC848479C57945EA0424A5B2994CE584F6
:10238000047A457A45EA0424A5B2964C2585847AD8
:10239000C57A45EA0424934D6C85047B457B45EA68
:1023A0000424A5B28F4CA585847BC57B45EA042413
:1023B000A5B28C4CE585047C457C45EA0424894D16
:1023C0002C86847CC57C45EA0424A5B2854C6586B0
:1023D000047D457D45EA0424A5B2824CA586804C47
:1023E000A4783CB901247E4DAC7084787E4D2C706D
:1023F0007E4C21708478132C4AD10479457945EAC2
:102400000424784DEC868479C57945EA0424A5B284
:10241000744C2587047A457A45EA0424A5B2714CA8
:102420006587847AC57A45EA04246E4DAC87047BBF
:10243000457B45EA0424A5B26A4CE587847BC57BCD
:1024400045EA0424A5B2674CA4F84050047C457CBE
:1024500045EA0424634DA5F84240847CC57C45EAE6
:102460000424A5B25F4CA4F84450047D457D45EAA0
:102470000424A5B25B4CA4F84650594CA4783CB94E
:102480000124574DAC708478574D2C70574C2170F7
:102490008478142C4FD10479457945EA0424514DB0
:1024A000A5F848408479C57945EA0424A5B24D4C85
:1024B000A4F84A50047A457A45EA0424A5B2494C66
:1024C000A4F84C50847AC57A45EA0424454DA5F811
:1024D0004E40047B457B45EA0424A5B2414CA4F858
:1024E0005050847BC57B45EA0424A5B23D4CA4F83A
:1024F0005250047C457C45EA04243A4DA5F85440EA
:10250000847CC57C45EA0424A5B2364CA4F8565018
:10251000047D457D45EA0424A5B2324CA4F8585008
:102520002F4CA4783CB901242D4DAC7084782E4DED
:102530002C702E4C21708478152C4FD1047945795C
:1025400045EA0424274DA5F85A408479C57945EA1F
:102550000424A5B2234CA4F85C50047A457A45EAD9
:102560000424A5B21F4CA4F85E50847AC57A45EACB
:1025700004241C4DA5F86040047B457B45EA0424F7
:10258000A5B2184CA4F86250847BC57B45EA0424AC
:10259000A5B2144CA4F86450047C457C45EA04249C
:1025A000104DA5F86640847CC57C45EA0424A5B29C
:1025B0000C4CA4F86850047D457D45EA0424A5B27E
:1025C000084CA4F86A50064CA4783CB90124044D88
:1025D000AC708478044D2C70044C217000BF17E659
:1025E000082500209C240020DC020020DD020020C1
:1025F00000B50748007848B106480078401DC1B2D0
:102600000548FFF7F3FD00200149087000BD0000F8
:10261000E5020020E4020020432500203249097829
:1026200039B9AA2805D101212F4A11702F49087004
:1026300059E02D490978012907D1AF2805D1022198
:10264000294A1170294948704DE027490978022923
:1026500007D1F12805DA0321234A11702349887034
:1026600041E02149097803290CD132280ADA0421F2
:102670001D4A11701D49C8701D49087000211D4A6E
:10268000117030E018490978042919D118490978DE
:10269000002915DD16490978491E154A117015499A
:1026A0000978144A1278521C124B1A70091D0F4AED
:1026B00050540F490978B1B905210B4A117012E045
:1026C0000949097805290BD10021074A11700949E8
:1026D0000978091D054A50540121074A117002E08A
:1026E0000021014A11707047E702002043250020B5
:1026F000E6020020E4020020E50200202DE9F0417E
:1027000005460E46AA200E4908704870EF208870D2
:102710000220C8700846057146710027002405E0B4
:102720000748005D3844C7B2601CC4B2062CF7DB12
:1027300003488771072100F005F8BDE8F08100002B
:102740001125002070B505460C462146014804F0CD
:1027500059FD70BD11250020F0B52DED0A8B81B01B
:102760000646B0EE408AF0EE608AB0EE419AF0EE96
:10277000619AB0EE42AAF0EE62AAB0EE43BAF0EE71
:1027800063BAB0EE44CA0024AA222146641C7F48E2
:1027900042542146641C425406F10F00C2B2214645
:1027A000641C7A48425400222146641C4254B7EE0D
:1027B000000A28EE000ABDEEC00A10EE100A00B2B0
:1027C00000909DF801202146641C704842549DF8F9
:1027D00000202146641C4254B7EE000A28EE800A0D
:1027E000BDEEC00A10EE100A00B200909DF8012064
:1027F0002146641C654842549DF800202046611C17
:10280000CCB262490A54B7EE000A29EE000ABDEEC6
:10281000C00A10EE100A00B200909DF80120204678
:10282000611CCCB259490A549DF800202046611C15
:10283000CCB256490A54B7EE000A29EE800ABDEE22
:10284000C00A10EE100A00B200909DF80120204648
:10285000611CCCB24D490A549DF800202046611CF1
:10286000CCB24A490A54B7EE000A2AEE000ABDEE7D
:10287000C00A10EE100A00B200909DF80120204618
:10288000611CCCB241490A549DF800202046611CCD
:10289000CCB23E490A54B7EE000A2AEE800ABDEED9
:1028A000C00A10EE100A00B200909DF801202046E8
:1028B000611CCCB235490A549DF800202046611CA9
:1028C000CCB232490A54B7EE000A2BEE000ABDEE34
:1028D000C00A10EE100A00B200909DF801202046B8
:1028E000611CCCB229490A549DF800202046611C85
:1028F000CCB226490A54B7EE000A2BEE800ABDEE90
:10290000C00A10EE100A00B200909DF80120204687
:10291000611CCCB21D490A549DF800202046611C60
:10292000CCB21A490A54B7EE000A2CEE000ABDEEEA
:10293000C00A10EE100A00B200909DF80120204657
:10294000611CCCB211490A549DF800202046611C3C
:10295000CCB20E490A54201FC8700027002505E09C
:102960000A48405D3844C7B2681CC5B2A542F7DBCF
:102970002046611CCCB205490F5421460348FFF79D
:10298000E1FE01B0BDEC0A8BF0BD00001125002076
:1029900002A0FDF719FD00BFFEE700004275734677
:1029A00061756C745F48616E646C65720D0A00003D
:1029B00070B504460D46164600F008F800F02EF8F3
:1029C00032462946204600F0E9FC70BD1CB50121C5
:1029D000084603F00FF90121480603F02BF90922FC
:1029E0000C210D4802F030F909220B210A4802F0AF
:1029F0002BF94FF4C050009002208DF80400032002
:102A00008DF8050000208DF806008DF80700694656
:102A1000014802F0D1F81CBD0000024008B51420A6
:102A20008DF8000000208DF801008DF802000120D3
:102A30008DF80300684602F0BDFB13208DF80000FE
:102A400000208DF801008DF8020001208DF80300B0
:102A5000684602F0AFFB08BD00B585B00221FC4816
:102A600001F0C0F800287DD00221F94800F0C6FF2F
:102A7000F849F74800F0A6FF6A460021F44801F043
:102A8000D4F99DF8080000286CD19DF80A000828A8
:102A9000FAD10098B0F5007F11D90098B0F5027F07
:102AA0000DD89DF80C209DF80B3042EA0321009AC6
:102AB000A2F20122E84B03EBC20004F06BFF40F2EC
:102AC00001210098884277D1E3484168006801EB12
:102AD0004030E2490968411AE148C0F8E812E1488B
:102AE000007858B9DE48D0F8E80238B1DC48D0F8B0
:102AF000E802DA4908600120DA4908709DF80E10F2
:102B00009DF80D0041EA002000B20A280BDA9DF87A
:102B10000E109DF80D0041EA002000B210F10A0FDE
:102B200001DD002006E09DF80E109DF80D0041EA41
:102B3000002000B200EE100AB8EEC00AC84880EDCE
:102B4000BE0A9DF810109DF80F0041EA002000B267
:102B50000A280DDA9DF810109DF80F0041EA0020B8
:102B600000B200E0DDE310F10A0F01DD002006E015
:102B70009DF810109DF80F0041EA002000B200EE11
:102B8000100AB8EEC00AB848D0ED000A20EE200ABC
:102B9000B348D0EDC20AB44890ED001AF7EE001A1F
:102BA00031EEC11A00EE810AAD4880EDC20AAF488D
:102BB000806A401CAD49886240F202210098884238
:102BC00076D1A548C168806801EB4030A3494968C7
:102BD000411AA348C0F8EC12A248407860B9A04856
:102BE000D0F8EC02012807D09D48D0F8EC029B49B0
:102BF000486001209B4948709DF80E109DF80D001B
:102C000041EA002000B20A280BDA9DF80E109DF868
:102C10000D0041EA002000B210F10A0F01DD002092
:102C200006E09DF80E109DF80D0041EA002000B26C
:102C300000EE100AB8EEC00A894880EDBF0A9DF880
:102C400010109DF80F0041EA002000B20A280BDAAC
:102C50009DF810109DF80F0041EA002000B210F11D
:102C60000A0F01DD002006E09DF810109DF80F000E
:102C700041EA002000B200EE100AB8EEC00A7A481D
:102C8000D0ED000A20EE200A7548D0EDC30A764840
:102C900090ED001AF7EE001A31EEC11A00EE810A2B
:102CA0006F4880EDC30A7148C06A401C6F49C86212
:102CB00040F203210098884275D167484169006954
:102CC00001EB40306A490968411A6548C0F88C1523
:102CD0006848007858B96248D0F88C0538B1604827
:102CE000D0F88C05624908600120624908709DF89F
:102CF0000E109DF80D0041EA002000B20A280BDA00
:102D00009DF80E109DF80D0041EA002000B210F170
:102D10000A0F01DD002006E09DF80E109DF80D0061
:102D200041EA002000B200EE100AB8EEC00A524894
:102D300080ED030A9DF810109DF80F0041EA002075
:102D400000B20A280BDA9DF810109DF80F0041EA36
:102D5000002000B210F10A0F01DD002006E09DF80E
:102D600010109DF80F0041EA002000B200EE100A9A
:102D7000B8EEC00A3C48D0ED000A20EE200A3E48DA
:102D8000D0ED050A384890ED001AF7EE001A31EE42
:102D9000C11A00EE810A384880ED050A3348006BFD
:102DA000401C324908630098B0F5017F6CD12A4875
:102DB000C169806901EB403030490968411A2848EF
:102DC000C0F83C14D0F83C0450B12D48007838B914
:102DD0002348D0F83C04294908600120284908709C
:102DE0009DF80E109DF80D0041EA002000B20A285F
:102DF0000BDA9DF80E109DF80D0041EA002000B29C
:102E000010F10A0F01DD002006E09DF80E109DF87C
:102E10000D0041EA002000B200EE100AB8EEC00A30
:102E2000184880ED060A9DF810109DF80F0041EA41
:102E3000002000B20A2828DA9DF810109DF80F0033
:102E400041EA002000B210F10A0F1EDD002023E04D
:102E50000064004003000012DC1B0020C4010020BD
:102E60003C11002026020020C0010020A42F0020D9
:102E7000CC01002028020020C4160020D001002030
:102E8000240200207015002023E09DF810109DF80A
:102E90000F0041EA002000B200EE100AB8EEC00AAE
:102EA000FD48D0ED000A20EE200AFC48D0EDC20A11
:102EB000F94890ED001AF7EE001A31EEC11A00EE53
:102EC000810AF74880ED0A0AF648406B401CF54934
:102ED000486340F205210098884274D1F248416A63
:102EE000006A01EB4030F1494968411AEB48C0F8EB
:102EF0004014D0F8400450B1ED48007838B9E748A4
:102F0000D0F84004E94948600120E94908709DF87B
:102F10000E109DF80D0041EA002000B20A280BDADD
:102F20009DF80E109DF80D0041EA002000B210F14E
:102F30000A0F01DD002006E09DF80E109DF80D003F
:102F400041EA002000B200EE100AB8EEC00AD448F0
:102F500080ED070A9DF810109DF80F0041EA00204F
:102F600000B20A280BDA9DF810109DF80F0041EA14
:102F7000002000B210F10A0F01DD002006E09DF8EC
:102F800010109DF80F0041EA002000B200EE100A78
:102F9000B8EEC00AC048D0ED000A20EE200ABF48B3
:102FA000D0EDC30ABC4890ED001AF7EE001A31EEDE
:102FB000C11A00EE810ABA4880ED0B0AB948806B4D
:102FC000401CB849886340F206210098884275D1B8
:102FD000B548C16A806A01EB4030B6490968411AB8
:102FE000AE48C0F80818B448007858B9AB48D0F8D3
:102FF000080838B1A948D0F80808AE49086001208F
:10300000AD4908709DF80E109DF80D0041EA0020B2
:1030100000B20A280BDA9DF80E109DF80D0041EA67
:10302000002000B210F10A0F01DD002006E09DF83B
:103030000E109DF80D0041EA002000B200EE100ACB
:10304000B8EEC00A9D4880ED060A9DF810109DF864
:103050000F0041EA002000B20A280BDA9DF8101098
:103060009DF80F0041EA002000B210F10A0F01DDC7
:10307000002006E09DF810109DF80F0041EA0020A6
:1030800000B200EE100AB8EEC00A8348D0ED000A84
:1030900020EE200A8948D0ED0A0A7F4890ED001AF8
:1030A000F7EE001A31EEC11A00EE810A834880ED76
:1030B0000A0A7C48C06B401C7A49C86340F2072169
:1030C0000098884276D17848416B006B01EB403024
:1030D00078494968411A7148C0F80C187648407818
:1030E00060B96E48D0F80C08012807D06B48D0F8BA
:1030F0000C087049486001206F4948709DF80E1017
:103100009DF80D0041EA002000B20A280BDA9DF874
:103110000E109DF80D0041EA002000B210F10A0FD8
:1031200001DD002006E09DF80E109DF80D0041EA3B
:10313000002000B200EE100AB8EEC00A5F4880ED31
:10314000070A9DF810109DF80F0041EA002000B218
:103150000A280BDA9DF810109DF80F0041EA0020B4
:1031600000B210F10A0F01DD002006E09DF81010FA
:103170009DF80F0041EA002000B200EE100AB8EE00
:10318000C00A4548D0ED000A20EE200A4B48D0ED99
:103190000B0A414890ED001AF7EE001A31EEC11A01
:1031A00000EE810A454880ED0B0A3E48006C401C49
:1031B0003C4908640098B0F5027F6CD13A48C16B75
:1031C000806B01EB40303E490968411A3348C0F832
:1031D00058193C48007858B93048D0F8580938B1E7
:1031E0002E48D0F858093649086001203549087042
:1031F0009DF80E109DF80D0041EA002000B20A284B
:103200000BDA9DF80E109DF80D0041EA002000B287
:1032100010F10A0F01DD002006E09DF80E109DF868
:103220000D0041EA002000B200EE100AB8EEC00A1C
:10323000254880ED030A9DF810109DF80F0041EA23
:10324000002000B20A280BDA9DF810109DF80F003C
:1032500041EA002000B210F10A0F01DD002006E073
:103260009DF810109DF80F0041EA002000B200EE1A
:10327000100AB8EEC00A0848D0ED000A20EE200A75
:103280001148D0ED050A044890ED001AF7EE001A37
:1032900031EEC11A1AE023E0C00100203C110020E9
:1032A00070150020A42F0020DC1B0020D00100207E
:1032B00025020020E4010020290200203C19002002
:1032C000EC0100202B020020901A002000EE810A61
:1032D000154880ED050A1548406C401C13494864A8
:1032E00040F21351009888421BD19DF80F209DF8A1
:1032F000100042EA002000F5E16081B24FF4C8738B
:103300004FF461620A4804F02FFB094840680849FD
:103310000968C1EB4112C2EB012100EB0111054824
:10332000816405B000BD0000901A0020A42F002089
:10333000B8010020D410002070B505460E460B4899
:10334000056000200949087248720820887200242C
:1033500004E0315D05480B300155641C082CF8DB96
:103360000249034800F0E9FD70BD00007C2E0020FA
:103370000064004010B50121064800F033FC40B164
:103380000121044800F03AFB03480068401C024950
:10339000086010BD00640040A42F002070B588B004
:1033A00004460D461646254800F07CFB05A800F0B3
:1033B000B4FD00208DF81A008DF81B008DF81C005C
:1033C0008DF81D008DF81E0001208DF81F008DF86E
:1033D000166000208DF8170008208DF818000320D3
:1033E0008DF81900ADF8140005A9144800F093FCFD
:1033F00000208DF80E008DF80F0001208DF81000D0
:10340000ADF80440ADF806500020ADF80800ADF866
:103410000A00ADF80C0001208DF8110001A800F0A1
:103420005DFB01220221054800F06CFC01221146DF
:10343000024800F067FC08B070BD00000064004066
:1034400010B52DED028B86B09FEDFE0AB0EE408ADE
:103450000221FD4800F0C6FB00286FD00221FA4887
:1034600000F0CCFAF949F84800F0ACFA01AA0021C2
:10347000F54800F0DAFC9DF80C0000285ED19DF8BC
:103480000E000828FAD10198B0F5007F11D90198F3
:10349000B0F5027F0DD89DF810209DF80F3042EA5C
:1034A0000321019AA2F20122E94B03EBC20004F0CE
:1034B00071FA0198B0F5007F7DD90198B0F5017FD0
:1034C00079D800248CE0E34931F81410019888423F
:1034D00072D1DF4800EBC4004168DD4850F8340089
:1034E00001EB4030DC4951F82410411ADB4840F828
:1034F0002410DB48005D60B9D84850F8240040B182
:10350000D64850F82400D44941F824000120D44979
:1035100008559DF812109DF8110041EA002000B2F4
:103520000A280CDA9DF812109DF8110041EA0020DB
:1035300000B210F10A0F02DD002007E002E29DF860
:1035400012109DF8110041EA002000B200EE100AAE
:10355000B8EEC00AC148203000EB840080ED000ABC
:103560009DF814109DF8130041EA002000B20A28CB
:103570000BDA9DF814109DF8130041EA002000B208
:1035800010F10A0F01DD002006E09DF814109DF8EF
:10359000130041EA002000B200EE100AB8EEC00AA3
:1035A00020EE080AAD48403000EB8400D0ED000A60
:1035B000B7EE001A01E017E011E031EE481A00EE14
:1035C000810AA648403000EB840080ED000AA5483F
:1035D00050F82400401CA34941F8240003E0641C77
:1035E000042CFFF470AF00BF40F20521019888421F
:1035F00074D197484038416E006E01EB40309A49D3
:103600000968411A95481438C0F83C169748007864
:1036100068B992481438D0F83C0640B18F48143845
:10362000D0F83C06904908600120904908709DF848
:1036300012109DF8110041EA002000B20A280BDAAE
:103640009DF812109DF8110041EA002000B210F11F
:103650000A0F01DD002006E09DF812109DF8110010
:1036600041EA002000B200EE100AB8EEC00A80481D
:1036700080ED060A9DF814109DF8130041EA002021
:1036800000B20A280BDA9DF814109DF8130041EAE5
:10369000002000B210F10A0F01DD002006E09DF8C5
:1036A00014109DF8130041EA002000B200EE100A49
:1036B000B8EEC00A20EE080A6D48D0ED0A0AB7EE4F
:1036C000001A31EE481A00EE810A80ED0A0A6548B8
:1036D0000C38C069401C63490C39C86140F20621AE
:1036E0000198884275D15A484038C16E806E01EB0E
:1036F00040305D494968411A58481438C0F84016AE
:103700005A48407870B955481438D0F84006012816
:1037100008D052481438D0F8400653494860012078
:10372000524948709DF812109DF8110041EA00209E
:1037300000B20A280BDA9DF812109DF8110041EA38
:10374000002000B210F10A0F01DD002006E09DF814
:1037500012109DF8110041EA002000B200EE100A9C
:10376000B8EEC00A424880ED070A9DF814109DF893
:10377000130041EA002000B20A280BDA9DF8141069
:103780009DF8130041EA002000B210F10A0F01DD9C
:10379000002006E09DF814109DF8130041EA002077
:1037A00000B200EE100AB8EEC00A20EE080A304857
:1037B000D0ED0B0AB7EE001A31EE481A00EE810A7E
:1037C00080ED0B0A27480C38006A401C25490C394B
:1037D000086240F207210198884274D11C484038A1
:1037E000416F006F01EB403022490968411A1B48C4
:1037F0001438C0F88C172048007868B91748143876
:10380000D0F88C0740B115481438D0F88C071B4904
:1038100008600120184908709DF812109DF81100E9
:1038200041EA002000B20A282ADA9DF812109DF819
:10383000110041EA002000B210F10A0F20DD002043
:1038400025E000009A99193F00680040030000122B
:103850001C1C0020040300205C1C002050110020D0
:103860002E020020B02F0020D80100202C020020C2
:1038700070170020E001002032020020CC0100205F
:103880009DF812109DF8110041EA002000B200EEF0
:10389000100AB8EEC00A2D4880ED030A9DF81410F6
:1038A0009DF8130041EA002000B20A280CDA9DF8C6
:1038B00014109DF8130041EA002000B210F10A0F25
:1038C00002DD002007E01CE09DF814109DF81300B5
:1038D00041EA002000B200EE100AB8EEC00A20EE65
:1038E000080A1A48D0ED050AB7EE001A31EE481A58
:1038F00000EE810A80ED050A1548406A401C144913
:10390000486240F21351019888421BD19DF8132060
:103910009DF8140042EA002000F5E16081B24FF406
:10392000C8734FF461620B4804F01EF80948406800
:1039300008490968C1EB4112C2EB012100EB0111FA
:103940000548816406B0BDEC028B10BDC418002090
:10395000A42F0020B8010020D410002070B586B03C
:1039600005460E46019500208DF80C008DF80D00DF
:1039700008208DF80E00002405E0315D0DF10F00E8
:103980000155601CC4B2082CF7DB01A9024800F005
:10399000D4FA06B070BD00000068004010B50121E7
:1039A000064800F01FF940B10121044800F026F854
:1039B00003484068401C0249486010BD0068004050
:1039C000A42F002000220C4B994202D100238361D6
:1039D00011E0C1F3130201F000730BB1C2600AE001
:1039E00001F080630BB1026105E001F000630BB1EF
:1039F000826000E0426070477000F030B1F5007FF7
:103A00003AD00FDC202928D006DC01291CD004295B
:103A10001DD0082940D11DE0402921D0B1F5807F7B
:103A20003AD126E0B1F5004F31D006DCB1F5806F18
:103A300025D0B1F5006F2FD124E0B1F5803F12D031
:103A4000B1F5003F28D111E0154A826025E0082237
:103A5000C26022E01022C2601FE0082202611CE066
:103A60001022026119E00822426016E01022426032
:103A700013E00422426010E0042242600DE00422C0
:103A800042600AE0002282610422426005E00022D6
:103A900082610422426000E000BF00BF7047000066
:103AA0000101010010B504460B48844209D10121EF
:103AB000480602F0CFF800214FF0007002F0CAF87B
:103AC00008E00121880602F0C5F800214FF080606F
:103AD00002F0C0F810BD00000064004010B50021E5
:103AE000837A012202FA03F13D4A126842F0010290
:103AF0003B4B1A603A4A1C3212688A43384B1C33DB
:103B00001A60027BCAB9364A0C3212688A43344BB7
:103B10000C331A604288C38842EA0343304A403279
:103B2000847A42F834300288838842EA03432C4A7C
:103B30004032847A02EBC4025360027B012A19D11D
:103B4000274A0C3212680A43254B0C331A6042880C
:103B5000038842EA0343224A4032847A42F83430EE
:103B6000C288838842EA03431D4A4032847A02EBCA
:103B7000C4025360C27A3AB9194A121D12688A43C4
:103B8000174B1B1D1A6006E0154A121D12680A43E6
:103B9000134B1B1D1A60028932B9114A1432126884
:103BA0008A430F4B14331A600289012A06D10C4A4A
:103BB000143212680A430A4B14331A60427B012AFA
:103BC00006D1074A1C3212680A43054B1C331A609F
:103BD000034A126822F00102014B1A6010BD000076
:103BE0000066004070B504460D4600266069284016
:103BF000002871D0B5F5807F5CD010DC082D35D061
:103C000006DC012D20D0022D24D0042D72D127E016
:103C1000102D31D0202D35D0402D6BD138E0B5F5A9
:103C2000004F60D009DCB5F5007F49D0B5F5806F55
:103C30004CD0B5F5006F5DD14FE0B5F5803F2DD08C
:103C4000B5F5003F56D12FE0A0682D4900F008FDE2
:103C5000064651E0E068032100F002FD06464BE015
:103C6000E068082100F0FCFC064645E0E068102111
:103C700000F0F6FC06463FE02069032100F0F0FC6E
:103C8000064639E02069082100F0EAFC064633E0E8
:103C90002069102100F0E4FC06462DE06068082150
:103CA00000F0DEFC064627E06068102100F0D8FC3A
:103CB000064621E0A069012100F0D2FC06461BE087
:103CC000A069022100F0CCFC064615E0A0690421A1
:103CD00000F0C6FC06460FE00FE0A069702100F07E
:103CE000BFFC064608E06068042100F0B9FC064607
:103CF00002E0FFE7002600BF00E00026304670BD6E
:103D0000010101001AB143690B43436102E04369B9
:103D10008B434361704730B502460020002314688E
:103D200024F002041460146844F00104146000E0FC
:103D30005B1C546804F001041CB94FF6FF74A342E5
:103D4000F6D1546804F001040CB900206CE08C79C1
:103D5000012C04D1146844F08004146003E014685A
:103D600024F080041460CC79012C04D1146844F050
:103D70004004146003E0146824F0400414600C7ADA
:103D8000012C04D1146844F02004146003E014688A
:103D900024F0200414604C7A012C04D1146844F0FF
:103DA0001004146003E0146824F0100414608C7A8A
:103DB000012C04D1146844F00804146003E0146872
:103DC00024F008041460CC7A012C04D1146844F067
:103DD0000404146003E0146824F0040414608C7874
:103DE000A407CD7844EA05640D7944EA05444D7989
:103DF00044EA05540D886D1E2C43D461146824F0E8
:103E000001041460002300E05B1C546804F001040A
:103E10001CB14FF6FF74A342F6D1546804F00104BC
:103E20000CB1002000E0012030BD10B500F5D873C2
:103E300003EB01131B6803F004031372137A53B9E5
:103E400000F5D87303EB01131B6840F2FF7404EA1A
:103E50005353136009E000F5D87303EB01131B689B
:103E60006FF0604404EAD303536000F5D87303EBAA
:103E700001131B6803F00203537200F5D87303EBC0
:103E800001135B6803F00F03937200F5D87303EB23
:103E900001135B681B0AD37400F5D87303EB01139D
:103EA0009B68D37200F5D87303EB01139B681C0A5F
:103EB000147300F5D87303EB01139B681C0C547347
:103EC00000F5D87303EB01139B681B0E937300F589
:103ED000D87303EB0113DB68D37300F5D87303EBDE
:103EE0000113DB681C0A147400F5D87303EB01138B
:103EF000DB681C0C547400F5D87303EB0113DB680A
:103F00001B0E937421B9C36843F02003C36003E020
:103F1000036943F02003036110BD00218171C17169
:103F2000017241728172C1728170C170032101718D
:103F30000221417101210180704710B50246002025
:103F4000936803F08063B3F1806F00D110E0936851
:103F500003F00063B3F1006F01D1012008E0936822
:103F600003F08053B3F1805F01D1022000E0042010
:103F7000042874D002F5C07303EB00131B6803F030
:103F8000010402F5C07303EB00131C600B7A7BB9CC
:103F90004B7A0C8843EA445302F5C07404EB0014D6
:103FA0002468234302F5C07404EB0014236010E07E
:103FB0000B7A4C6843EAC4034C7A234302F5C0747D
:103FC00004EB00142468234302F5C07404EB0014CE
:103FD00023608B7A03F00F038B7202F5C07303EB3F
:103FE00000135B6823F00F0402F5C07303EB0013AA
:103FF0005C6002F5C07303EB00135B688C7A2343AB
:1040000002F5C07404EB001463608B7B1C064B7BD1
:1040100044EA03440B7B44EA0323CC7A234302F5AE
:10402000C07404EB0014A3608B7C1C064B7C44EA38
:1040300003440B7C44EA0323CC7B234302F5C07486
:1040400004EB0014E36002F5C07303EB00131B687C
:1040500043F0010402F5C07303EB00131C6010BDB4
:104060002DE9FF4F2DED088B83B004460D46201D32
:1040700050F82500029004F19800405D20B904F149
:10408000700050F8256036E004F19800405D01288A
:1040900004D104F1700050F825702CE004F1980070
:1040A000405D022804D104F1700050F8259022E010
:1040B00004F19800405D032804D104F1700050F829
:1040C000258018E004F19800405D042804D104F133
:1040D000700050F825B00EE004F19800405D05280E
:1040E00004D104F1700050F825A004E004F1700040
:1040F00050F82500019001F0A3F80120FA4908606A
:10410000FA490870002319461846029A01F0A8FAE5
:1041100095E200F0A7FFF64801680D98814205D1AD
:104120000020F149086001F08BF889E2F148EF497D
:10413000097800EBC10090ED001BB0EE410AF0EEF3
:10414000610A9FEDED1B53EC112B51EC100B07F0A6
:1041500041FE7DD004F19800405D38BBE84800681E
:1041600008F0E4F841EC1B0BE248E049097800EB69
:10417000C10090ED001BB0EE410AF0EE610A53EC75
:10418000102B51EC1B0B07F0E9FE41EC190B3068CA
:1041900007F0D0FE41EC1A0B53EC192B07F066FD2B
:1041A00041EC180B07F082FE30606EE104F19800DC
:1041B000405D012827D1D248006808F0B7F841ECEB
:1041C0001B0BCC48C949097800EBC10090ED001BDE
:1041D000B0EE410AF0EE610A53EC102B51EC1B0BD0
:1041E00007F0BCFE41EC190B386807F08CFE41EC7F
:1041F0001A0B53EC192B07F039FD41EC180B07F0A3
:1042000025FE386041E104F19800405D02282BD181
:10421000BB48006808F08AF841EC1B0BB548B3496D
:10422000097800EBC10090ED001BB0EE410AF0EE02
:10423000610A53EC102B51EC1B0B07F08FFE41EC85
:10424000190BB9F8000007F075FE41EC1A0B00E0FD
:10425000C7E053EC192B07F009FD41EC180B07F0F0
:1042600025FEA9F8000010E104F19800405D032844
:104270002AD1A348006808F059F841EC1B0B9D486F
:104280009A49097800EBC10090ED001BB0EE410A9D
:10429000F0EE610A53EC102B51EC1B0B07F05EFEA5
:1042A00041EC190BB8F9000007F02DFE41EC1A0B98
:1042B00053EC192B07F0DAFC41EC180B07F0C6FDA4
:1042C00000B2A8F80000E0E004F19800405D042886
:1042D00029D18B48006808F029F841EC1B0B854870
:1042E0008249097800EBC10090ED001BB0EE410A55
:1042F000F0EE610A53EC102B51EC1B0B07F02EFE75
:1043000041EC190B9BF8000007F014FE41EC1A0B6E
:1043100053EC192B07F0AAFC41EC180B07F0C6FD73
:104320008BF80000B1E004F19800405D05282AD127
:104330007348006807F0FAFF41EC1B0B6D486B49AE
:10434000097800EBC10090ED001BB0EE410AF0EEE1
:10435000610A53EC102B51EC1B0B07F0FFFD41ECF5
:10436000190B9AF9000007F0CEFD41EC1A0B53EC43
:10437000192B07F07BFC41EC180B07F067FD40B2EE
:104380008AF8000081E05E48006807F0CFFF41EC4A
:104390001B0B58485549097800EBC10090ED001BF4
:1043A000B0EE410AF0EE610A53EC102B51EC1B0BFE
:1043B00007F0D4FD41EC190B019890ED000A10EEC6
:1043C000101A084607F0B2FF41EC1A0B53EC192BF8
:1043D00007F04CFC41EC180B07F016FC0199086043
:1043E00053E044484149097800EBC10090ED001BBF
:1043F000B0EE410AF0EE610A9FED3F1B53EC112B2A
:1044000051EC100B07F0E6FC3FD13D4890ED000A5F
:10441000B5EEC00AF1EE10FA37D004F19800405D15
:1044200010B90020306030E004F19800405D0128B0
:1044300002D10020386028E004F19800405D022895
:1044400003D10020A9F800001FE004F19800405DAE
:10445000032803D10020A8F8000016E004F198001A
:10446000405D042803D100208BF800000DE004F12A
:104470009800405D052803D100208AF8000004E080
:104480009FED200A019880ED000A9FED1E0A1C484E
:1044900080ED000A04F19800405D78B9306807F0BB
:1044A00049FD41EC180B04230E22B0EE480AF0EE51
:1044B000680A0121002001F011F891E004F1980050
:1044C000405D012820D1386807F01DFD41EC180B34
:1044D00004230E22B0EE480AF0EE680A0121002003
:1044E00000F0FCFF7CE00000D00E0020D40E002085
:1044F000CC0E0020E00E00200000000000000000B4
:10450000D80E00200000000004F19800405D022851
:1045100010D1B9F8000007F00DFD41EC180B042391
:104520000E22B0EE480AF0EE680A0121002000F0E9
:10453000D5FF55E004F19800405D032810D1B8F98B
:10454000000007F0E0FC41EC180B04230E22B0EE53
:10455000480AF0EE680A0121002000F0BFFF3FE0AA
:1045600004F19800405D042810D19BF8000007F08A
:10457000E1FC41EC180B04230E22B0EE480AF0EEE9
:10458000680A0121002000F0A9FF29E004F1980049
:10459000405D052810D19AF9000007F0B4FC41EC09
:1045A000180B04230E22B0EE480AF0EE680A01212F
:1045B000002000F093FF13E0019890ED000A10EE48
:1045C000101A084607F0B2FE41EC180B04230E2225
:1045D000B0EE480AF0EE680A0121002000F07EFFEC
:1045E0001A481B49097800EBC10090ED001BB0EEA2
:1045F000410AF0EE610A1FED401B53EC112B51EC08
:10460000100B07F0E7FB06D1012312A202210020C4
:1046100001F026F810E00D480D49097800EBC100C3
:1046200090ED001BB0EE410AF0EE610A05230E2268
:104630000221002000F052FF142006F013FB68E571
:1046400000BF03B0BDEC088BBDE8FF8FE00E00207B
:10465000D40E0020436C65617220546F202030001E
:104660000246002002EA01030BB1012000E0002015
:104670007047000010B50B490B4800F081F980B17C
:104680000849094800F058F8074800F04CF9074974
:10469000087007480078401C05490870012005494A
:1046A000087010BD0088001028600240B10E002084
:1046B000B00E0020B20E002010B500BF0B480168FC
:1046C0000B4803F005FF00BF0A490B4800F058F9FA
:1046D00058B10849084800F02FF80848006880479A
:1046E00007488068401C0649886010BDCC0F002038
:1046F000640F00200080201040640240540F00200E
:10470000A42F00200246094B9A4201D2084801E03A
:104710000648103801F000531BB1064B0B40C36034
:1047200002E0044B0B4083607047000010640240BD
:10473000006002407D0F7D0F0246094B9A4201D274
:10474000084801E00648103801F000531BB1064B41
:104750000B40C36002E0044B0B40836070470000D5
:1047600010640240006002407D0F7D0F21B102689D
:1047700042F00102026003E0026822F001020260DE
:1047800070470000016821F0010101600021016013
:1047900041608160C1600161212141614A498842D3
:1047A00004D13D21484A103A91608CE046491831C5
:1047B000884205D14FF47461434A103A916082E017
:1047C00041493031884205D14FF474113E4A103AC4
:1047D000916078E03C494831884205D14FF07461DE
:1047E000394A103A91606EE037496031884204D10D
:1047F0003649354A103AD16065E03349783188420C
:1048000004D13349304A103AD1605CE02E499031EE
:10481000884204D12F492C4A103AD16053E02A49EA
:10482000A831884205D14FF03D51274A103AD16056
:1048300049E02949884204D13D21274A083A1160BC
:1048400041E025491831884205D14FF47461224A6C
:10485000083A116037E020493031884205D14FF4E1
:1048600074111D4A083A11602DE01B4948318842F5
:1048700005D14FF07461184A083A116023E01649D7
:104880006031884204D11149134A121F11601AE0A5
:1048900011497831884204D10D490F4A121F116025
:1048A00011E00D499031884204D10A490A4A121F89
:1048B000116008E00849A831884204D14FF03D5109
:1048C000054A121F11607047106002403D00002031
:1048D000400F002000003D201064024021B102681A
:1048E00042F48022026003E0026822F48022026027
:1048F000704722B1036843F40023036003E00368B8
:1049000023F40023036001617047014600200A6818
:1049100002F001020AB1012000E0002070470146C8
:10492000486880B27047014600200A6802F40022FD
:104930000AB1012000E000207047000030B50346B6
:104940000A46002000240B4DAB4201D20A4901E087
:104950000849103902F000550DB14C6800E00C68B0
:10496000064D2C4004EA02050DB1012000E00020B4
:1049700030BD000010640240006002407D0F7D0FDA
:1049800070B50246002000240025124EB24201D22A
:10499000114B01E00F4B103B104E0E4036B11E265E
:1049A00006EAD124166806EA040502E0566906F014
:1049B000800501F000560EB15C6800E01C68084EEE
:1049C000344004EA010616B10DB1012000E00020D8
:1049D00070BD000010640240006002403C0F3C0FBC
:1049E0007D0F7D0F10B501F080034BB122B14369FB
:1049F00043F08003436103E0436923F08003436194
:104A000080290BD02AB1036801F01E042343036000
:104A100004E0036801F01E04A343036010BD00001E
:104A200010B500220268134B1A40CC680B68234370
:104A30004C6923438C692343CC6923430C6A234389
:104A40004C6A23438C6A23434C6B23438C6B234374
:104A50001A430260426922F00702D1E90B34234372
:104A60001A4342610B6943604B6883608B68C36083
:104A700010BD00003F801CF002A0FBF7A5FC00BFAA
:104A8000FEE7000044656275674D6F6E5F48616EBA
:104A9000646C65720D0A000000B587B00121022028
:104AA00001F0A8F80121880401F0C4F807220A21C6
:104AB000244800F0C9F807220B21224800F0C4F86E
:104AC0004FF44060059002208DF8180000208DF80A
:104AD0001A0003208DF8190000208DF81B0005A98D
:104AE000184800F069F84FF4E13001900020ADF86B
:104AF0000800ADF80A00ADF80C00ADF810000C206D
:104B0000ADF80E0001A9104802F0F6FA012240F2B9
:104B100024410D4802F0CBFA01210B4802F05BF969
:104B200027208DF8000002208DF8010000208DF86C
:104B3000020001208DF80300684600F03BFB07B03F
:104B400000BD000000040240004800400EB50121F5
:104B5000880401F08FF8684601F01CFE0020ADF8D3
:104B600008001020ADF80200632001905320ADF83A
:104B700000006946084801F0CBFD00BF0648103030
:104B8000008800F001000028F8D04FF6FE700249BE
:104B9000103108800EBD00000048014002A0FBF764
:104BA00013FC00BFFEE700004650555F48616E648D
:104BB0006C65720D0A000000F0B50A460021002362
:104BC000002400BF3DE0012505FA01F3156805EA60
:104BD00003049C4234D105684F000326BE40B54310
:104BE000056015794E00B5400668354305601579B6
:104BF000012D02D01579022D16D185684F000326AC
:104C0000BE40B543856055794E00B5408668354352
:104C10008560456801268E40B543456045689679B4
:104C20008E40B6B235434560C5684F000326BE408E
:104C3000B543C560D5794E00B540C6683543C560FB
:104C4000491C1029BFD3F0BDF0B5002300244D0747
:104C5000ED0E02FA05F3CE1000F1200555F82650AE
:104C60004E07F70E0F26BE40B543CF1000F12006C9
:104C700046F82750CE1000F1200555F8265045EA99
:104C80000304CE1000F1200545F82640F0BD024691
:104C9000002013690B400BB1012000E00020704799
:104CA000418370470183704701461648007808B970
:104CB000002070471448154B1B7810F8130008703B
:104CC0001148124B1B7800EB4300407848700F48A6
:104CD0000078401C0D4B187018460078142801DB32
:104CE000002018700A48027808480078904203D1E2
:104CF0000020044B187002E00220024B18700120C3
:104D0000D7E70000FF02002075250020FD020020EB
:104D1000FE02002004A0FBF757FB0848016808A02A
:104D2000FBF752FB00BFFEE7486172644661756C99
:104D3000745F48616E646C65720D0A002CED00E0D2
:104D400025780D0A0000000070B5024600240025F9
:104D500000230020958A138B1B0445EA030626F0E6
:104D60007F4404EA01068E4201D1012000E00020C8
:104D700070BD21B1028842F00102028004E0028885
:104D80004FF6FE731A4002807047000010B50446CB
:104D90001348844209D10121480500F05BFF00213E
:104DA0004FF4001000F056FF18E00E48844209D17D
:104DB0000121880500F04EFF00214FF4800000F033
:104DC00049FF0BE00848844208D10121C80500F0E2
:104DD00041FF00214FF4000000F03CFF10BD000037
:104DE0000054004000580040005C004021B102889F
:104DF00042F48072028004E002884FF6FF631A409A
:104E00000280704721B1028842F40072028004E0FF
:104E100002884FF6FF531A40028070470CB50246D5
:104E2000002000230193009300920B0F019321F0C7
:104E30007F41019B1BB1009B1433009303E0090CDD
:104E4000009B18330093009B1B680B400BB10120A3
:104E500000E000200CBD00002DE9FF4704460D4690
:104E60000026B1460427DFF8CC80A6884FF6C07034
:104E70000640684600F01EFFDDF808802E48B8FBAB
:104E8000F0F01FFA80F946EA0906A68020884FF65E
:104E9000FE710840208000262849286888420CD8E6
:104EA00028684000B8FBF0F087B2042F00DA04272E
:104EB0003E4309F10100208427E0E8884BF6FF71AA
:104EC000884206D1286800EB4000B8FBF0F087B2BA
:104ED00009E0286800EBC00101EB0010B8FBF0F01E
:104EE00087B247F48047C7F30B0008B947F00107C2
:104EF00047F4004006434FF4967009FB00F04FF46E
:104F00007A7190FBF1F0401C2084A683208840F049
:104F10000100208026884FF6F5300640A888698970
:104F2000084306432680A889298908432081BDE8D3
:104F3000FF87000000127A0040420F00A0860100A7
:104F400012B141F0010101E001F0FE010182704760
:104F5000018270472DE9F04105460E4600240027E6
:104F600009E0601C04B2B4F5487F03DD012704F0BA
:104F7000A5FC07E000274FF400313648FFF74EFF4D
:104F80000028EED100BF0024002F60D1012131485C
:104F9000FFF72CFF07E0601C04B240F2DC508442B3
:104FA00001DD002405E02C492A48FFF7CDFE00284A
:104FB000F1D000BF0024002278212648FFF7C0FF6F
:104FC0000DE0601C04B2B4F5487F04DD00202349E5
:104FD0000870012709E001202049087000272049B6
:104FE0001C48FFF7B1FE0028EBD000BF0024294683
:104FF0001848FFF7ADFF07E0601C04B2B4F5487F26
:1050000001DD012707E000271549891C1148FFF73A
:105010009BFE0028F0D000BF002431460D48FFF76A
:1050200097FF07E0601C04B240F2DC50844201DDCF
:10503000002406E00A49891C0648FFF785FE00287F
:10504000F0D000BF002401210248FFF7DBFEBDE8DD
:10505000F08100000054004001000300AA0E00206F
:105060008200070010B53C48FFF71EFE002871D0F3
:105070003948007806286BD2DFE800F0031C354D74
:105080006A5D3648006840B93348407888B934488A
:105090000068401E324908600BE02F48407840B954
:1050A000304890ED000AF7EE000A30EE200A80ED5D
:1050B000000A4EE02948006840B92748407888B97E
:1050C00027480068401C264908600BE022484078C9
:1050D00040B9244890ED000AF7EE000A30EE600A6D
:1050E00080ED000A35E01C48407898B91B480068FC
:1050F00028B91D480068401C1B4908600AE01B488D
:105100000078401C1949087008460078082801D129
:10511000002008701DE01048407858B91248006817
:10512000401E114908600D480068012802D1002086
:105130000A4908600DE00848407840B90C480078FA
:1051400028B10C48007880F001000A49087000BFBF
:1051500000BF00BF10BD0000C20E0020D00E002016
:10516000C40E0020D80E0020CC0E0020D40E00204B
:10517000C00E0020C10E002002A0FBF725F900BFE1
:10518000FEE700004D656D4D616E6167655F4861CA
:105190006E646C65720D0A0002A0FBF715F900BF82
:1051A000FEE700004E4D495F48616E646C65720D0C
:1051B0000A00000070B5002100230F22C4781CB340
:1051C000174C246804F4E064C4F5E064C4F30721D8
:1051D000C1F10404E3B20A4144789C40E1B284780E
:1051E000144021430C07210E0E4C057861550478BC
:1051F00004F01F050124AC4005786D11AD0005F1E8
:10520000E025C5F8004109E0047804F01F050124F9
:10521000AC40054D0678761145F8264070BD00007B
:105220000CED00E000E400E080E100E00249014311
:10523000024A1160704700000000FA050CED00E022
:1052400070B500241DE004F1B001C8B201220021B4
:1052500000F02CFA01220021084600F027FA012272
:105260000021102000F022FA002506E0012211465C
:10527000002000F01BFA681CC5B2802DF6DB601C14
:10528000C4B2082CDFDB70BD2DE9F05F06460F4687
:1052900090461C46DDF828A04FF0000BE11704EB08
:1052A0005171C910A4EBC10131B92046E11704EBDB
:1052B0005171C1F3C70506E02046E11704EB5171B7
:1052C000C910491CCDB23D4616E02946304600F0D3
:1052D00081F9B1460CE059460BF1010B1AF80100B7
:1052E00001210B9A00F0E2F909F1010000F0FF0939
:1052F000C145F0DB681CC5B2A542E6DBBDE8F09F06
:1053000000B587B00121480500F094FC012102207E
:1053100000F070FCC020019002208DF809008DF88B
:10532000080001208DF80A008DF80B0001A96848DB
:10533000FFF742FC042206216548FFF785FC0422A2
:1053400007216348FFF780FC6248FFF71FFD01213A
:10535000480500F06FFC5F48008840F400405D495C
:1053600008800846008820F4004008800020ADF83E
:1053700010004BF6FF70ADF812003020ADF81400AD
:105380000815ADF816000001ADF81800524803905A
:1053900001215048FFF7EDFC03A94E48FFF75CFDE3
:1053A000642005F05FFC01220021AE2000F07EF9B0
:1053B00001220021202000F079F901220021102093
:1053C00000F074F901220021B02000F06FF90122F1
:1053D0000021C82000F06AF901220021084600F0EF
:1053E00065F901220021102000F060F9012200215E
:1053F000402000F05BF901220021812000F056F9E5
:1054000001220021FF2000F051F901220021A120FA
:1054100000F04CF901220021A62000F047F90122FA
:105420000021A82000F042F9012200213F2000F0D5
:105430003DF901220021A42000F038F901220021C9
:10544000D32000F033F901220021084600F02EF9A4
:1054500001220021D52000F029F901220021F020AD
:1054600000F024F901220021D92000F01FF90122C7
:105470000021222000F01AF901220021DA2000F098
:1054800015F901220021122000F010F9012200215B
:10549000DB2000F00BF901220021202000F006F9AA
:1054A000012200218D2000F001F9012200211420A9
:1054B00000F0FCF801220021AF2000F0F7F8FFF720
:1054C000BFFE0021084600F085F807B000BD0000CF
:1054D0000004024000540040801A06002DE9F04FFD
:1054E0002DED028B85B082468B46B0EE408AF0EE01
:1054F000608A1F4614216846FBF75DF900240025E9
:1055000000260BE09FED310B53EC102B51EC180BE8
:1055100006F024FD41EC180B601CC4B2BC42F1DB68
:1055200051EC180B06F092FC06460024002E06DA19
:105530002D200DF804007642601CC4B205E026B9A7
:1055400030200DF80400601CC4B20025B04603E012
:105550000A2098FBF0F86D1CB8F1000FF8DC4FF052
:105560000009BD4207DC30200DF80400601CC4B205
:1055700000BF3D4602E0E81B00F0FF090021601972
:10558000401C0DF8001014E04D4504D12E20611987
:105590000DF801000CE00A2096FBF0F100FB116011
:1055A0003030C0B261190DF801000A2096FBF0F608
:1055B0006D1E002DE8DA01236A465946504600F078
:1055C0004FF805B0BDEC028BBDE8F08F0000000085
:1055D0000000244070B504460D4605F1B001C8B284
:1055E0000122002100F062F8102141EA141001228A
:1055F000002100F05BF804F00F0141F001000122EE
:10560000002100F053F870BD2DE9F04706460C4626
:10561000174698464FF000090025A7F1200000F03A
:10562000FF097F2E02DD0026A01CC4B2601CC1B29F
:105630003046FFF7CFFF00250BE009EB4901074A91
:1056400002EB4101485D4246012100F02FF8681C41
:10565000C5B2062DF1DBBDE8F08700002AC40008C2
:105660002DE9F04106460F4614469846002518E0FD
:10567000B8F1000F06D1625D002339463046FFF7CE
:10568000C3FF05E0625D012339463046FFF7BCFFEA
:10569000B01DC6B27A2E02DD0026B81CC7B2681C47
:1056A000C5B2605D0028E3D1BDE8F08170B5044665
:1056B0000D4616460EB9E043C4B225B1214640203E
:1056C000FFF748FC03E021460020FFF743FC70BDD4
:1056D0000FB470B588B004460D461C2101A8FBF735
:1056E0006AF80FA8009001A8009A0E99FAF75AFEDE
:1056F000064600200090012301AA29462046FFF714
:10570000AFFF304608B070BC5DF814FB10B502481E
:1057100001F084F810BD00006C1D0020B0EE401AAE
:1057200031EE600A80ED030A90ED030A90ED083A2D
:1057300030EE430AF0EE401A90ED030AB0EE402A34
:1057400090ED030A90ED083AF0EE003A03EEC30A3A
:1057500090ED093A30EE030AF0EE402A90ED000A8F
:1057600020EE210A90ED013A03EE020A90ED023A92
:1057700003EE220A80ED040A90ED080A80ED090A82
:1057800090ED030A80ED080A90ED040A90ED073AC7
:10579000B1EE433AB4EEC30AF1EE10FA06D290ED40
:1057A000070AB1EE400A80ED040A0CE090ED040A0D
:1057B00090ED073AB4EEC30AF1EE10FA03DD90ED76
:1057C000070A80ED040A90ED050A90ED043A30EEE8
:1057D000030A80ED050A00BF90ED050A90ED063A38
:1057E000B4EEC30AF1EE10FA04DD90ED060A80ED86
:1057F000050A10E090ED050A90ED063AB1EE433A45
:10580000B4EEC30AF1EE10FA05D290ED060AB1EE3D
:10581000400A80ED050A00BF90ED050A7047B0EE22
:10582000401A31EE600A80ED070A90ED070A80ED1C
:10583000090A90ED0A0AD0ED071A30EE210A80ED30
:105840000A0A90ED050AB5EEC00AF1EE10FA20D072
:1058500000BF90ED0A0AD0ED051AB4EEE10AF1EEB0
:1058600010FA04DD90ED050A80ED0A0A10E090EDD3
:105870000A0AD0ED051AF1EE611AB4EEE10AF1EE72
:1058800010FA05D290ED050AB1EE400A80ED0A0A41
:1058900000BF90ED070AD0ED081A30EE610A80EDE6
:1058A0000B0A90ED070A80ED080A90ED000AD0ED92
:1058B000091A20EE210AD0ED011A90ED0A2A01EE14
:1058C000820AD0ED021A90ED0B2A01EE820A80EDD9
:1058D0000C0A90ED060AB5EEC00AF1EE10FA20D0DF
:1058E00000BF90ED0C0AD0ED061AB4EEE10AF1EE1D
:1058F00010FA04DD90ED060A80ED0C0A10E090ED40
:105900000C0AD0ED061AF1EE611AB4EEE10AF1EEDE
:1059100010FA05D290ED060AB1EE400A80ED0C0AAD
:1059200000BF90ED0C0A704700B58BB00121042038
:1059300000F080F90121082000F05CF902220C211E
:105940004148FFF781F94FF48050099002208DF80B
:10595000280003208DF8290000208DF82A0001205E
:105960008DF82B0009A93848FFF726F95320ADF828
:1059700018000020ADF81A0044F6206007900020BF
:10598000ADF8200006A9314800F0C2FE6020ADF855
:1059900004000120ADF806000220ADF8100001A9B6
:1059A0002A4800F0DDFD0821284800F020FE0222F0
:1059B0000D212548FFF748F94FF4005009900220C7
:1059C0008DF8280003208DF8290000208DF82A008A
:1059D00001208DF82B0009A91B48FFF7EDF8532093
:1059E000ADF818000020ADF81A0044F620600790CA
:1059F0000020ADF8200006A9144800F089FE6020C0
:105A0000ADF804000120ADF806000220ADF810004A
:105A100001A90E4800F0F4FD08210C4800F04FFEEB
:105A200001210A4800F05AFD0121084800F065FDF7
:105A300042F22830054934310860091D0860C82049
:105A400005F010F90BB000BD000C0240000800404A
:105A500010B504466148007807287DD2DFE800F0E1
:105A6000040A333D4D5363005A2C02D101205B4997
:105A70000870B0E05A48006880F8884058480068CC
:105A800090F88800A52804D0A62806D0A72818D109
:105A90000FE002205149087013E05248006820B11D
:105AA0004F4800684F490968884700204B490870F3
:105AB00007E000204A490968086006204749087045
:105AC00000BF00BF87E046480068A0F88440464811
:105AD00084700320414908707DE041480068B0F8B7
